:020000040800F2
:10000000005000200D0B000851070008530700089E
:1000100055070008570700085907000800000000AE
:100020000000000000000000000000005B07000866
:100030005D070008000000005F0700086107000876
:10004000550B0008550B0008550B0008550B000810
:10005000550B0008550B000869070008550B0008F0
:10006000550B0008550B0008550B0008550B0008F0
:10007000550B0008550B0008750700088507000898
:10008000550B0008550B0008550B0008550B0008D0
:10009000550B0008550B0008550B0008550B0008C0
:1000A000550B0008550B0008550B0008550B0008B0
:1000B000550B0008550B0008550B0008550B0008A0
:1000C000550B0008550B0008550B0008550B000890
:1000D000550B000895070008550B0008550B000844
:1000E000550B0008550B0008550B000800000000D8
:1000F0000000000000000000000000000000000000
:0C01000000000000000000005FF808F1A3
:10010C0010B5054C237833B9044B13B10448AFF345
:10011C0000800123237010BD540800200000000053
:10012C006C3B000808B5034B1BB103490348AFF304
:10013C00008008BD00000000580800206C3B00083F
:10014C0038B50BE0104C0821204601F029F810219D
:10015C00204601F025F8642000F042FD0B4BDB89B2
:10016C009BB240F29E729342ECD90124084B1C7056
:10017C00054D22460821284601F00CF82246102194
:10018C00284601F007F838BD000C01408408002017
:10019C007008002010B584B04FF47A740294019367
:1001AC00009201230A460146024801F079FB40B255
:1001BC0004B010BD9C08002010B50124FF2C0ED0FB
:1001CC004FF47A7301222146064801F0BFFD10B1AD
:1001DC000134E4B2F2E720B2034B188010BDD120F9
:1001EC00FCE700BF9C0800200000002030B587B061
:1001FC0084B24FF47A730293012301930DF1170229
:10020C00009275222146194801F0FCFB9DF817302D
:10021C00682B28D100258DF8175001230DF11702FA
:10022C006B212046FFF7B6FF07238DF8173001230B
:10023C000DF1170219212046FFF7ACFF8DF817506E
:10024C0001230DF117021C212046FFF7A3FF8DF8A7
:10025C00175001230DF117021B212046FFF79AFFBF
:10026C00284607B030BD4FF0FF30FAE79C0800205D
:10027C0010B10170002070470120704770B500214B
:10028C003A4802F013FC10B10124204670BD042141
:10029C00364802F00BFC08B10124F6E7082133487C
:1002AC0002F004FC08B10124EFE70C212F4802F006
:1002BC00FDFB044608B10124E7E7082002F06CFFBF
:1002CC002B4B1860002848D000234370284A116833
:1002DC000120087012685360082002F05DFF254B66
:1002EC00186000283BD000234370224B1A68012170
:1002FC0011701B6804225A60082002F04DFF1E4B3F
:10030C00186070B3002343701B4B1A6801211170E5
:10031C001B680820586002F03FFF184B186010B3A0
:10032C00002545701E461B6801221A7033680C228A
:10033C005A6029460E4B1868FFF79AFF29460D4B59
:10034C001868FFF795FF29460B4B1868FFF790FFCD
:10035C0029463068FFF78CFF97E7012495E70124C5
:10036C0093E7012491E701248FE700BF3C090020AB
:10037C008008002078080020740800207C080020E9
:10038C000346E8B1007801281BD059705B6823B98B
:10039C000C4B1B68596300207047042B06D0082BAC
:1003AC0009D0084B1B68196400207047054B1B686B
:1003BC00996300207047034B1B68D963002070477A
:1003CC00012070473C09002008B5024802F05EF994
:1003DC0008BD00BFF4080020012800D0704738B5D4
:1003EC00184C23685B6A9BB2174D6B80204602F059
:1003FC007BF9236800225A626B889BB2B3F5616F5C
:10040C0009D36B889BB242F65052934203D8012217
:10041C002A7000222A710C4B1B787BB10A4A137983
:10042C00518889B202EB4303D98013790133DBB2D3
:10043C001371072B02D9134600221A71014802F0DE
:10044C0025F938BDF40800208408002000B583B0DD
:10045C000E4B5A6942F001025A615B6903F00103C9
:10046C000193019B002211460E2000F0DFFB0E20B1
:10047C0000F014FC002211460F2000F0D7FB0F20D7
:10048C0000F00CFC03B05DF804FB00BF0010024050
:10049C0070B588B0002404940594069407941F4BFF
:1004AC009A6942F020029A619A6902F02002019244
:1004BC00019A9A6942F004029A619A6902F0040264
:1004CC000292029A9A6942F008029A619B6903F0BF
:1004DC0008030393039B124E22461821304600F06A
:1004EC0059FE012504950F4B0593069504A90E485A
:1004FC0000F03EFD18230493059502230693079301
:10050C0004A9304600F034FD22460421062000F0F8
:10051C008DFB062000F0C2FB08B070BD001002403D
:10052C00000C0140000021100008014008B50B48E8
:10053C000B4B03600B4B436000238360C3604FF491
:10054C008042026143618361C361036201F0CAF8B6
:10055C0000B908BD00F03AF8FBE700BF9C0800208A
:10056C0000580040A086010010B586B0002302930D
:10057C000393049305930268114B9A4201D006B081
:10058C0010BD104CA36943F00803A361A36903F0E9
:10059C0008030093009B4FF44063029312230393D0
:1005AC000323059302A9084800F0E2FCE36943F435
:1005BC008003E361E36903F480030193019BDEE7AD
:1005CC000058004000100240000C014072B6FEE7DB
:1005DC0000B591B02822002106A803F091F8002361
:1005EC0001930293039304930593012206924FF413
:1005FC00803307930A9202220D920E934FF4E0136C
:10060C000F9306A801F082FC80B90F2301930221FD
:10061C000291002303934FF480620492059301A886
:10062C0001F0A6FE20B911B05DF804FBFFF7CEFF78
:10063C00FFF7CCFF10B500F0AFFAFFF7C9FFFFF7DB
:10064C0027FFFFF703FF00F051F900F0C5F900F0A8
:10065C00C9F8FFF76BFFFFF711FE08B1FFF7B6FF04
:10066C00FFF7B2FE0BE01F4C0821204600F098FD6E
:10067C001021204600F094FD322000F0B1FAFFF773
:10068C009BFDFFF7B3FD0028EDD1FFF759FD14E0FA
:10069C00E4B22146144B1868FFF772FE2146134B47
:1006AC001868FFF76DFE2146114B1868FFF768FEBE
:1006BC002146104B1868FFF763FE0F4B9B899BB2CA
:1006CC0040F2F6329342F8D90B4B9B899BB2A3F2C2
:1006DC00F7339BB2094CA4FB0324E408C72BD7D9EE
:1006EC001424D5E7000C0140800800207808002075
:1006FC00740800207C08002084080020CDCCCCCCD1
:10070C0082B00E4B9A6942F001029A619A6902F02A
:10071C0001020092009ADA6942F08052DA61DB69D8
:10072C0003F080530193019B054A536823F0E06367
:10073C0043F00073536002B0704700BF00100240DA
:10074C0000000140FEE7FEE7FEE7FEE7FEE770472C
:10075C007047704708B500F031FA08BD08B50120A4
:10076C0000F028FD08BD000008B5024800F05EFB53
:10077C0008BD00BFC809002008B5024800F056FBB0
:10078C0008BD00BF8409002008B5024802F096FBA2
:10079C0008BD00BF0C0A002010B503460C4A0D49D9
:1007AC000D48006840B10C4800680344521A93424B
:1007BC0006D8094A136010BD0748084C0460F2E7DC
:1007CC0002F0C0FC0C2303604FF0FF30F3E700BFD6
:1007DC000050002000040000F0080020980A0020BF
:1007EC007047000000B587B0002302930393049375
:1007FC0005930093019315484FF080420260472205
:10080C00426083604FF6FF72C2600361836101F046
:10081C00BBFF90B94FF48053029302A90B4802F02E
:10082C00B7F868B90023009301936946074802F0B2
:10083C00ABF940B907B05DF804FBFFF7C7FEE9E779
:10084C00FFF7C4FEEEE7FFF7C1FEF3E7F408002064
:10085C0082B00368B3F1804F04D00E4A93420DD09E
:10086C0002B0704703F50433DA6942F00102DA6131
:10087C00DB6903F001030093009BF1E7064BDA6997
:10088C0042F00402DA61DB6903F004030193019B7B
:10089C00E6E700BF000800400010024000B587B03A
:1008AC000023029303930493059302680D4B9A4221
:1008BC0002D007B05DF804FB03F502339A6942F0ED
:1008CC0008029A619B6903F008030193019B4FF4A2
:1008DC007073029302230393059302A9024800F05C
:1008EC0047FBE6E700080040000C014000B58FB064
:1008FC0000230A930B930C930D9308930993019384
:10090C000293039304930593069307933048314A5B
:10091C00026040F2CF22426083606322C2600361B6
:10092C00836101F031FF002839D14FF480530A93D1
:10093C000AA9274802F02CF8002833D1244801F0EA
:10094C004FFF002831D100230893099308A92048B0
:10095C0002F01AF960BB6023019300220292039209
:10096C00059201A91A4801F099FF20BB04220DEB56
:10097C000201174801F092FF00BB082201A914489C
:10098C0001F08CFFE8B90C2201A9114801F086FF97
:10099C00D0B90F48FFF782FF0FB05DF804FBFFF7EB
:1009AC0015FEC2E7FFF712FEC8E7FFF70FFECAE716
:1009BC00FFF70CFECFE7FFF709FED7E7FFF706FEC0
:1009CC00DBE7FFF703FEDEE7FFF700FEE1E700BF22
:1009DC003C0900200008004008B50A480A4B036097
:1009EC004FF4E133436000238360C36003610C2246
:1009FC0042618361C36102F0A5F900B908BDFFF73C
:100A0C00E5FDFBE70C0A00200038014070B586B00C
:100A1C00002302930393049305930268324B9A428A
:100A2C0001D006B070BD044603F558439A6942F4F0
:100A3C0080429A619A6902F480420092009A9A6903
:100A4C0042F004029A619B6903F004030193019B39
:100A5C004FF4007302930223039303230593234E55
:100A6C0002A9304600F084FA4FF48063029300250B
:100A7C000395049502A9304600F07AFA1C481D4BE8
:100A8C000360456085608023C360056145618561B5
:100A9C004FF48053C36100F023F9F0B9144BE363B6
:100AAC005C621548154B0360102343600023836080
:100ABC008022C260036143618361C36100F010F95D
:100ACC0070B90D4BA3635C6200220621252000F057
:100ADC00ADF8252000F0E2F8A3E7FFF777FDDDE79E
:100AEC00FFF774FDEDE700BF00380140000801403E
:100AFC008409002058000240C8090020440002402C
:100B0C00FFF76EFE0B480C490C4A002302E0D45848
:100B1C00C4500433C4188C42F9D3094A094C00233D
:100B2C0001E013600432A242FBD302F011FBFFF789
:100B3C0081FD70470000002054080020C03B0008D5
:100B4C0054080020980A0020FEE7000010B5044667
:100B5C000E4B18784FF47A73B3FBF0F30C4A106811
:100B6C00B0FBF3F000F0A8F868B90F2C01D9012004
:100B7C000AE0002221464FF0FF3000F057F8054BF9
:100B8C001C60002000E0012010BD00BF0800002008
:100B9C00040000200C00002008B5074A136843F03D
:100BAC0010031360032000F02FF80F20FFF7CEFF87
:100BBC00FFF7A6FD002008BD00200240034A116883
:100BCC00034B1B780B441360704700BF540A002082
:100BDC0008000020014B1868704700BF540A002021
:100BEC0038B50446FFF7F6FF0546B4F1FF3F02D0D7
:100BFC00044B1B781C44FFF7EDFF401BA042FAD3BB
:100C0C0038BD00BF08000020074AD36823F4E06316
:100C1C001B041B0C000200F4E060034343F0BF63B1
:100C2C0043F40033D360704700ED00E000B5194B7E
:100C3C00DB68C3F30223C3F1070CBCF1040F28BF1C
:100C4C004FF0040C03F1040EBEF1060F18D9033B50
:100C5C004FF0FF3E0EFA0CFC21EA0C0199400EFA03
:100C6C0003F322EA0303194300280BDB0901C9B281
:100C7C0000F1604000F5614080F800135DF804FB62
:100C8C000023E5E700F00F000901C9B2024B19542B
:100C9C00F4E700BF00ED00E014ED00E0002807DBF6
:100CAC0000F01F02400901239340024A42F8203011
:100CBC00704700BF00E100E00138B0F1807F0BD23B
:100CCC004FF0E0235861054AF02182F823100020F0
:100CDC00986107221A6170470120704700ED00E00F
:100CEC0060B310B402460168154B0B441548A0FBC9
:100CFC0003031B099B001364134BD363022382F879
:100D0C002130086820F47F5020F03000536894683C
:100D1C002343D468234314692343546923439469BC
:100D2C002343D469234303430B60002090630123C6
:100D3C0082F8213082F8200010BC704701207047E7
:100D4C00F8FFFDBFCDCCCCCC0000024090F8213098
:100D5C00DBB2022B06D004238363002380F82030FF
:100D6C00012070470268136823F00E0313600268B9
:100D7C00136823F001031360036CC16B012202FAA8
:100D8C0003F34B6080F82120002380F820301846B4
:100D9C007047000008B590F82130DBB2022B03D06D
:100DAC0004238363012008BD0268136823F00E033B
:100DBC0013600268136823F0010313600368194A77
:100DCC00934214D0143293421FD0143293421ED04B
:100DDC00143293421ED0143293421ED014329342DA
:100DEC0002D04FF0807203E04FF4801200E0012239
:100DFC000D4B5A60012380F82130002380F82030FD
:100E0C00436B6BB198470020CDE71022F0E74FF40D
:100E1C008072EDE74FF48052EAE74FF48032E7E757
:100E2C000020C0E7080002400000024038B5C36B48
:100E3C001A6804682568016C04238B40134235D072
:100E4C0015F0040F32D0236813F0200F03D1236860
:100E5C0023F0040323600368434A934214D01432F2
:100E6C00934218D01432934217D01432934217D0B5
:100E7C001432934217D01432934202D04FF0806256
:100E8C0003E04FF4800200E00422384B5A60C36A3E
:100E9C0003B1984738BD4022F7E74FF48062F4E77E
:100EAC004FF48042F1E74FF48022EEE702238B40AF
:100EBC0013423CD015F0020F39D0236813F0200FE9
:100ECC0006D1236823F00A032360012380F8213024
:100EDC000368254A934214D0143293421CD0143226
:100EEC0093421BD0143293421BD0143293421BD02A
:100EFC001432934202D04FF0007203E04FF4001210
:100F0C0000E00222194B5A60002380F82030836ADB
:100F1C00002BBFD09847BDE72022F3E74FF40072B7
:100F2C00F0E74FF40052EDE74FF40032EAE7082304
:100F3C0003FA01F11142ADD015F0080FAAD02368C5
:100F4C0023F00E032360026CC16B012303FA02F23F
:100F5C004A60836380F82130002380F82030036BD3
:100F6C00002B97D0984795E70800024000000240FC
:100F7C0070B582B00024A446A6E0804DAA4210D0E1
:100F8C0007D97F4DAA420CD005F58035AA4208D06E
:100F9C0013E0A5F58015AA4203D005F57025AA42E9
:100FAC0007D18A68002A58D0012A51D043610824FD
:100FBC0003E0A5F58015AA42F3D0BEF1FF0F4ED881
:100FCC000646BEF1FF0F4CD84FEA8C0233680F2552
:100FDC00954023EA050304FA02F2134333604B688D
:100FEC0013F0805F6ED0674B9A6942F001029A61F0
:100FFC009B6903F001030193019B4FEA9C02951C32
:10100C00614B53F825600CF003039D000F23AB409C
:10101C0026EA03065D4B984229D003F5806398427B
:10102C0000F08E8003F58063984200F08B8003F50E
:10103C008063984219D004231AE0CC68BDE7CC68D1
:10104C000434BAE7CC680834B7E7CC680C34B4E79E
:10105C0003610824B1E70024AFE70424ADE7061DC3
:10106C00AFE7ACF108029200B0E7032300E00023E5
:10107C00AB4033430232444D45F822304B6813F4F5
:10108C00801F61D0424A936843EA0E0393604B6819
:10109C0013F4001F5ED03E4AD36843EA0E03D360BC
:1010AC004B6813F4003F5BD0394A536843EA0E0394
:1010BC0053604B6813F4803F58D0354A136843EAA9
:1010CC000E0313600CF1010C0A6832FA0CF353D0C6
:1010DC00012303FA0CF302EA030E33EA0202F1D104
:1010EC004A68122A3FF649AF122A3FF666AF01A5AD
:1010FC0055F822F0AF0F00084710000851100008F7
:10110C0063100008C70F0008C70F0008C70F0008BE
:10111C00C70F0008C70F0008C70F0008C70F00084B
:10112C00C70F0008C70F0008C70F0008C70F00083B
:10113C00C70F0008C70F00084B1000085710000815
:10114C00012395E7022393E7114A936823EA0E03E0
:10115C0093609CE70E4AD36823EA0E03D3609FE7A3
:10116C000B4A536823EA0E035360A2E7084A13683C
:10117C0023EA0E031360A5E702B070BD0000221035
:10118C000000311000100240000001400008014036
:10119C00000401400AB10161704709040161704704
:1011AC00C36801EA030221EA030141EA0241016139
:1011BC007047000008B5054B5B69034200D108BDC0
:1011CC00024B5861FFF708F9F9E700BF0004014032
:1011DC0003685A6912F4806F01D1002070476FF4D4
:1011EC0080625A6100230363202280F83D2080F83E
:1011FC003E30026C42F00402026480F83C30012064
:10120C0070472DE9F04106460C46174698463BE0E0
:10121C00FFF7E0FC069BC01A404502D8B8F1000F5E
:10122C0032D1012D18D033689B6924EA03039BB299
:10123C00B3FA83F35B099F4226D100233363202248
:10124C0086F83D2086F83E30326C42F02002326443
:10125C0086F83C30012027E033685B6924EA0303FD
:10126C009BB2B3FA83F35B09E5E733685B6924EA65
:10127C00030C1FFA8CFCBCFA8CFC4FEA5C1C674517
:10128C0011D1B8F1FF3FC3D1C4F30745012DECD008
:10129C0033689B6924EA030C1FFA8CFCBCFA8CFCA7
:1012AC004FEA5C1CEBE70020BDE8F0812DE9F84328
:1012BC0005460E469046994653E01A6842F4007271
:1012CC001A602B686FF480625A6100232B63202212
:1012DC0085F83D2085F83E302A6C42F004022A64E1
:1012EC0085F83C3001204AE0FFF774FCA0EB0900C4
:1012FC00404502D8B8F1000F33D1012F17D02B681D
:10130C009B6926EA03039BB2003B18BF012343B33E
:10131C0000232B63202285F83D2085F83E302A6C73
:10132C0042F020022A6485F83C30012027E02B682B
:10133C005B6926EA03039BB2003B18BF0123E6E777
:10134C002B689C6926EA0404A4B2003C18BF012453
:10135C00A4B12B685A6912F4806FAED1B8F1FF3F7B
:10136C00C2D1C6F30747012FEAD12B685C6926EA84
:10137C000404A4B2003C18BF0124E9E70020BDE836
:10138C00F88370B504460D46164623685B6913F066
:10139C00800F21D12046FFF71BFFF8B9B5F1FF3FB5
:1013AC00F3D0FFF717FC801BA84201D8002DECD11D
:1013BC0023685B6913F0800FE7D10023236320229D
:1013CC0084F83D2084F83E30226C42F020022264E6
:1013DC0084F83C30012000E0002070BD0120FCE7C7
:1013EC002DE9F04385B004460D4691461F46DDF8C5
:1013FC0030800D9E0368196841F480711960009665
:10140C00434600224FF00111FFF7FBFE60B9236841
:10141C0005F0FE051D613346424626492046FFF77E
:10142C0045FF68B1012008E023681B6813F4807F36
:10143C0002D04FF400732364032005B0BDE8F083A1
:10144C000023039323685A6903929B690393039BBC
:10145C00324641462046FFF794FF30B9012F0FD199
:10146C0023685FFA89F61E61E7E7236C042B01D031
:10147C000120E2E72268136843F400731360F7E776
:10148C0023684FEA19221A61324641462046FFF77B
:10149C0078FF20B923685FFA89F61E61CDE7236CCB
:1014AC00042B01D00120C8E72268136843F40073B1
:1014BC001360F7E7020001002DE9F04784B0044601
:1014CC000D46164699460C9FDDF834800268136869
:1014DC0043F4806313600368196841F480711960E8
:1014EC00CDF800803B4600224FF00111FFF789FE3A
:1014FC0070B95FFA85FA236805F0FE051D61434655
:10150C003A4641492046FFF7D1FE68B1012008E078
:10151C0023681B6813F4807F02D04FF4007323649C
:10152C00032004B0BDE8F0870023039323685A69B5
:10153C0003929B690393039B424639462046FFF76F
:10154C0020FF80B9B9F1010F18D12368F6B21E61E2
:10155C00424639462046FFF714FF68B3236C042B30
:10156C0024D00120DDE7236C042B01D00120D8E727
:10157C002268136843F400731360F7E72368320A98
:10158C001A61424639462046FFF7FBFE18B923681C
:10159C00F6B21E61DCE7236C042B01D00120C0E7FE
:1015AC002268136843F400731360F7E7226813682A
:1015BC0043F400731360D4E72268136843F4807318
:1015CC001360CDF800803B4600224FF001112046FD
:1015DC00FFF717FE68B922684AF00103136143460E
:1015EC003A4609492046FFF761FE002899D00120B0
:1015FC0097E723681B6813F4807F02D04FF40073C5
:10160C00236403208DE700BF0200010070B504467F
:10161C000D46164623685B6913F0040F21D1204652
:10162C00FFF7D6FDF8B9B5F1FF3FF3D0FFF7D2FACB
:10163C00801BA84201D8002DECD123685B6913F004
:10164C00040FE7D100232363202284F83D2084F883
:10165C003E30226C42F02002226484F83C3001209F
:10166C0000E0002070BD0120FCE770B504460D467B
:10167C00164614E06FF010025A61002323632022F7
:10168C0084F83D2084F83E30226C226484F83C308F
:10169C00012025E023685B6913F0400F10D023680C
:1016AC00586910F0400F1AD1586910F0100FE1D1A1
:1016BC00FFF790FA801BA842ECD8002DEFD1E9E798
:1016CC0000232363202284F83D2084F83E30226CD2
:1016DC0042F02002226484F83C30012000E000201B
:1016EC0070BD0000002800F0CC8070B5044690F866
:1016FC003D30002B77D0242384F83D3022681368CA
:10170C0023F0010313602268136843F40043136051
:10171C002268136823F40043136000F0E5FE62684E
:10172C005A4B9A4264D85A4B98428CBF00230123DF
:10173C00002B40F0A8805749A1FB00318B0C256889
:10174C006A6822F03F0242EA91426A6021680A6AA2
:10175C0022F03F0266684D4DAE424FD80133134321
:10176C000B622168CA6922F44F4222F0FF026668BC
:10177C00464B9E424CD8431E7600B3FBF6F3013326
:10178C0040F6FC70034278D0C3F30B031343CB61D8
:10179C0021680B6823F0C003E269206A02431343FB
:1017AC000B6021688B6823F4034323F0FF03226949
:1017BC00E068024313438B602168CB6823F0FF037E
:1017CC006269A06902431343CB602268136843F03B
:1017DC000103136000202064202384F83D30206333
:1017EC0084F83E0070BD80F83C30FEF7BDFE82E709
:1017FC00294B98428CBF0023012399E74FF496752F
:10180C0005FB03F3254DA5FB03539B090133A6E709
:10181C00A368BBB9451E06EB460CB5FBFCF50135C0
:10182C00C5F30B05B5FA85F56D0945BBC3B9013890
:10183C0006EB4603B0FBF3F30133C3F30B0343F4A2
:10184C000043A3E7451E06EB860C0CEB8C0CB5FB9A
:10185C00FCF50135C5F30B05B5FA85F56D09E4E723
:10186C00013806EB860303EB8303B0FBF3F3013380
:10187C00C3F30B0343F4404388E7042386E70123B7
:10188C0084E7012070470120ACE700BFA08601006F
:10189C007F841E0083DE1B43FF083D00D34D621086
:1018AC002DE9F04383B004460F46904699460C9EB2
:1018BC00FFF790F9054694F83D00C0B2202803D0FC
:1018CC00022003B0BDE8F0830095192301224B4997
:1018DC002046FFF796FC002840F0898094F83C30B5
:1018EC00012B00F08680012384F83C3023681A68B1
:1018FC0012F0010F03D11A6842F001021A6022683B
:10190C00136823F400631360212384F83D304023D3
:10191C0084F83E30002323640A9B6362BDF82C30AC
:10192C006385638D2385364BE362019500964B46A8
:10193C00424639462046FFF753FD00285BD1238DE4
:10194C00002B35D02A4631462046FFF71AFD20BB26
:10195C00626A236812781A61626A531C6362218D71
:10196C00013989B22185638D9BB2013B9BB26385A2
:10197C002368586910F0040FE1D00029DFD05278A9
:10198C001A61636A01336362238D013B2385638D86
:10199C009BB2013B9BB26385D1E7236C042B01D036
:1019AC0001208EE72268136843F400731360F7E795
:1019BC002A4631462046FFF729FE50B1236C042BF2
:1019CC0001D001207DE72268136843F40073136093
:1019DC00F7E72268136843F400731360202384F83C
:1019EC003D30002384F83E3084F83C3069E7022017
:1019FC0067E7022065E7012063E700BF02001000E3
:101A0C000000FFFF2DE9F04389B004460F469046D5
:101A1C009946129E00230793FFF7DCF8054694F8CD
:101A2C003D00C0B2202804D00227384609B0BDE8DA
:101A3C00F08300951923012281492046FFF7E1FB31
:101A4C00002840F0728194F83C30012B00F06F813B
:101A5C00012384F83C3023681A6812F0010F03D17B
:101A6C001A6842F001021A602268136823F40063BA
:101A7C001360222384F83D30402384F83E30002349
:101A8C002364109B6362BDF844306385638D2385AA
:101A9C006C4BE362019500964B4642463946204614
:101AAC00FFF70AFD0746002840F04381238D5BB900
:101ABC00039323685A6903929A690392039A1A68EA
:101ACC0042F400721A60EDE0012B0FD0022B21D0F2
:101ADC002268136843F48063136000230693236821
:101AEC005A6906929B690693069BDBE02268136891
:101AFC0023F48063136072B60023049323685A693D
:101B0C0004929A690492049A1A6842F400721A6058
:101B1C0062B6C7E02268136843F40063136072B6C0
:101B2C000023059323685A6905929A690592059AD0
:101B3C001A6822F480621A6062B6B3E02A46314613
:101B4C002046FFF792FD002840F0F58023681A69C3
:101B5C00636A1A70636A01336362238D013B2385C8
:101B6C00638D9BB2013B9BB263859BE00095334632
:101B7C00002235492046FFF744FB002840F0DF8067
:101B8C002268136823F48063136072B623681A69A1
:101B9C00636A1A70636A01336362238D013B238588
:101BAC00638D9BB2013B9BB26385284B1B68DB08A2
:101BBC00274AA2FB03231B0A03EB8303C3EBC303D8
:101BCC000793079B013B0793079B002B28D02368A7
:101BDC005A6912F0040FF4D01A6842F400721A60B9
:101BEC0023681A69636A1A70636A01336362238D0E
:101BFC00013B2385638D9BB2013B9BB2638562B62F
:101C0C0023681A69636A1A70636A01336362238DED
:101C1C00013B2385638D9BB2013B9BB2638541E005
:101C2C002363202284F83D2084F83E30226C42F05D
:101C3C002002226462B684F83C300127F5E600BF2E
:101C4C00020010000000FFFF04000100040000204F
:101C5C0089B5F8142A4631462046FFF706FD0028C0
:101C6C006FD123681A69636A1A70626A531C6362C3
:101C7C00238D013B2385638D9BB2013B9BB2638516
:101C8C002368596911F0040F0CD01B695370636AF7
:101C9C0001336362238D013B2385638D9BB2013B32
:101CAC009BB26385238D002B36D0032BD2D8012B0E
:101CBC003FF444AF022B7FF459AF0095334600221A
:101CCC0021492046FFF79DFA002836D172B62268CA
:101CDC00136843F40073136023681A69636A1A70FB
:101CEC00636A01336362238D013B2385638D9BB251
:101CFC00013B9BB2638562B623681A69636A1A70EA
:101D0C00636A01336362238D013B2385638D9BB230
:101D1C00013B9BB26385C5E7202384F83D3000234B
:101D2C0084F83E3084F83C307FE602277DE60227BB
:101D3C007BE6012779E6012777E6012775E601277F
:101D4C0073E6012771E600BF040001002DE9F043A2
:101D5C0085B00446884691461D46FEF73BFF94F835
:101D6C003D30DBB2202B03D0022005B0BDE8F08360
:101D7C00064600901923012257492046FFF741FAE5
:101D8C00002840F0A08094F83C30012B00F09D809E
:101D9C00012384F83C3023681A6812F0010F03D138
:101DAC001A6842F001021A602268136823F4006377
:101DBC001360242384F83D3000272764474BE362EB
:101DCC0040E023681B6813F4807F02D04FF400734B
:101DDC0023640320C9E7A02384F83D3022685369AB
:101DEC00C3F340035269C2F3802294F83DC05FFAFA
:101DFC008CFCBCF1A00F09D043B93AB9FEF7EAFE4E
:101E0C00801BA842E7D8002DE8D1E4E7202384F812
:101E1C003D3023685A6912F0020F31D11A6842F42E
:101E2C0000721A6023686FF480625A61009619235D
:101E3C00012229492046FFF7E4F9002849D101374E
:101E4C004F4538D22268136843F4807313600096B0
:101E5C002B4600224FF001112046FFF7D2F9002843
:101E6C00AFD1236808F0FE021A61FEF7B3FE0646F6
:101E7C0022685369C3F340035269C2F38022B4E76A
:101E8C001A6842F400721A600023039323685A699B
:101E9C0003929B690393039B0096192301220E491D
:101EAC002046FFF7AEF990B9202384F83D3000238B
:101EBC0084F83C3059E7202384F83D30002384F823
:101ECC003C30012051E702204FE702204DE7012072
:101EDC004BE7012049E700BF020010000000FFFFA4
:101EEC0082B0084B1B68084AA2FB03235B0A00FB69
:101EFC0003F3019300BF019B5A1E0192002BF9D1F1
:101F0C0002B0704704000020D34D6210002800F08E
:101F1C00F18170B582B00446036813F0010F2CD028
:101F2C00994B5B6803F00C03042B1DD0964B5B683C
:101F3C0003F00C03082B12D06368B3F5803F41D03B
:101F4C00002B55D103F1804303F504331A6822F4B6
:101F5C0080321A601A6822F480221A6037E08A4BA9
:101F6C005B6813F4803FE7D0874B1B6813F4003F8A
:101F7C0003D06368002B00F0BF81236813F0020FBD
:101F8C0075D0814B5B6813F00C0F5FD07E4B5B6898
:101F9C0003F00C03082B54D02369002B00F08A802B
:101FAC007A4B01221A60FEF715FE0546764B1B682C
:101FBC0013F0020F75D1FEF70DFE401B0228F5D968
:101FCC0003209EE1704A136843F480331360636806
:101FDC0043B3FEF7FFFD05466B4B1B6813F4003F44
:101FEC00CBD1FEF7F7FD401B6428F5D9032088E11F
:101FFC00B3F5A02F09D0644B1A6822F480321A6012
:10200C001A6822F480221A60E1E703F18043A3F5F9
:10201C003C331A6842F480221A601A6842F4803207
:10202C001A60D4E7FEF7D6FD0546574B1B6813F430
:10203C00003FA2D0FEF7CEFD401B6428F5D903204B
:10204C005FE1514B5B6813F4803FA5D14E4B1B688D
:10205C0013F0020F03D02369012B40F04F814A4A41
:10206C00136823F0F803616943EAC1031360236822
:10207C0013F0080F33D0A369002B5CD0434B012223
:10208C00C3F88024FEF7A6FD05463F4B5B6A13F0B0
:10209C00020F21D1FEF79EFD401B0228F5D903202B
:1020AC002FE1394A136823F0F803616943EAC1034D
:1020BC001360DCE7354B00221A60FEF78BFD0546FA
:1020CC00314B1B6813F0020FD1D0FEF783FD401B80
:1020DC000228F5D9032014E10120FFF701FF236842
:1020EC0013F0040F00F09680274BDB6913F0805F30
:1020FC0034D1254BDA6942F08052DA61DB6903F0A6
:10210C0080530193019B0125214B1B6813F4807FA5
:10211C0026D0E368012B3DD0002B53D103F1804333
:10212C0003F504331A6A22F001021A621A6A22F0C9
:10213C0004021A6233E0154B0022C3F88024FEF728
:10214C0049FD0546104B5B6A13F0020FC7D0FEF732
:10215C0041FD401B0228F5D90320D2E00025D3E72E
:10216C000B4A136843F480731360FEF733FD064685
:10217C00074B1B6813F4807FCBD1FEF72BFD801B24
:10218C006428F5D90320BCE0001002400000424254
:10219C00007000405F4A136A43F001031362E36866
:1021AC0033B3FEF717FD06465A4B1B6A13F0020FAA
:1021BC002FD1FEF70FFD801B41F288339842F3D9E3
:1021CC0003209EE0052B09D0524B1A6A22F0010223
:1021DC001A621A6A22F004021A62E0E74D4B1A6A7C
:1021EC0042F004021A621A6A42F001021A62D6E73D
:1021FC00FEF7F0FC0646474B1B6A13F0020F08D0A3
:10220C00FEF7E8FC801B41F288339842F3D9032097
:10221C0077E0E5B9E369002B72D03E4A526802F0D0
:10222C000C02082A56D0022B17D03B4B00221A6600
:10223C00FEF7D0FC0446374B1B6813F0007F47D0E9
:10224C00FEF7C8FC001B0228F5D9032059E0314ADF
:10225C00D36923F08053D361DCE72F4B00221A663D
:10226C00FEF7B8FC05462B4B1B6813F0007F06D01D
:10227C00FEF7B0FC401B0228F5D9032041E0236A8D
:10228C00B3F5803F1AD023494B6823F47413226AA8
:10229C00606A024313434B601F4B01221A66FEF720
:1022AC0099FC04461B4B1B6813F0007F0ED1FEF704
:1022BC0091FC001B0228F5D9032022E0154A536833
:1022CC0023F40033A1680B435360DCE7002018E0D3
:1022DC00002016E0012B16D00E4B5B6803F4803106
:1022EC00226A914211D103F47013626A93420ED1A7
:1022FC00002006E001207047012002E0012000E0F0
:10230C00002002B070BD0120FBE70120F9E701209D
:10231C00F7E700BF00100240000042420F4B5B6821
:10232C0003F00C02082A01D00D487047C3F3834216
:10233C000C49885C13F4803F0BD0084B5B68C3F3EB
:10234C004043094AD35C064A02FB00F0B0FBF3F0B1
:10235C007047064B03FB00F0704700BF00100240B3
:10236C0000127A009C3B0008AC3B000800093D00C1
:10237C00002800F0A08070B50D460446524B1B6837
:10238C0003F007038B420BD24F4A136823F0070369
:10239C000B431360136803F007038B4240F08D80EE
:1023AC00236813F0020F17D013F0040F04D0474A20
:1023BC00536843F4E0635360236813F0080F04D0B0
:1023CC00424A536843F460535360404A536823F0C5
:1023DC00F003A1680B435360236813F0010F31D055
:1023EC006368012B20D0022B25D0384A126812F0DA
:1023FC00020F64D035494A6822F0030213434B6044
:10240C00FEF7E8FB0646314B5B6803F00C03626891
:10241C00B3EB820F16D0FEF7DDFB801B41F2883345
:10242C009842F0D9032045E0284A126812F4003F84
:10243C00E0D101203EE0254A126812F0007FD9D18C
:10244C00012037E0204B1B6803F00703AB420AD98D
:10245C001D4A136823F007032B431360136803F022
:10246C000703AB422DD1236813F0040F06D0174A93
:10247C00536823F4E063E1680B435360236813F063
:10248C00080F07D0114A536823F46053216943EABB
:10249C00C1035360FFF742FF0C4B5B68C3F303139C
:1024AC000B4AD35CD8400B4B18600B4B1868FEF7EB
:1024BC004DFB002070BD012070470120FAE7012080
:1024CC00F8E70120F6E700BF0020024000100240B0
:1024DC00843B0008040000200C000020014B18680D
:1024EC00704700BF0400002008B5FFF7F7FF044B4E
:1024FC005B68C3F30223034AD35CD84008BD00BF1A
:10250C0000100240943B000808B5FFF7E7FF044BAE
:10251C005B68C3F3C223034AD35CD84008BD00BF39
:10252C0000100240943B000870B4036A026A22F067
:10253C00010202624668826922F073020C6844EA66
:10254C00020523F002028B6813430D4CA04209D004
:10255C000B4CA0420DD0466085614A684263036211
:10256C0070BC704723F00803CA68134323F00403BC
:10257C00EEE726F440764A6932438E691643EAE761
:10258C00002C014030B4036A026A22F480720262A9
:10259C004568C26922F073020C68224323F400736D
:1025AC008C6843EA04230F4CA04209D00D4CA04286
:1025BC000ED04560C2614A68C263036230BC70478A
:1025CC0023F40063CC6843EA042323F48063EDE72F
:1025DC0025F440554C6945EA04158C6945EA041507
:1025EC00E7E700BF002C014030B4036A026A22F412
:1025FC00805202624468C26922F4E6420D6842EAE3
:10260C00052223F400538D6843EA0533074DA84295
:10261C0006D04460C2614A680264036230BC7047F1
:10262C0024F480444D6944EA8514F2E7002C0140FF
:10263C0010B4036A046A24F001040462846924F06F
:10264C00F00C4CEA021223F00A030B438261036282
:10265C0010BC704710B4036A046A24F010040462BE
:10266C00846924F4704C4CEA023223F0A00343EA50
:10267C0001138261036210BC7047836823F07003FE
:10268C000B4343F0070383607047000090F83D3024
:10269C00DBB2012B22D1022380F83D300368114AB2
:1026AC00934210D0B3F1804F0DD0A2F594329342E7
:1026BC0009D002F58062934205D01A6842F00102FB
:1026CC001A60002070479A6802F00702062A07D0A9
:1026DC001A6842F001021A6000207047012070470E
:1026EC0000207047002C01400368196A41F2111256
:1026FC00114208D1196A40F24442114203D11A68BE
:10270C0022F001021A60012380F83D30002070474E
:10271C007047000003681B4A90420AD0B0F1804F0A
:10272C0007D0A2F59432904203D002F58062904219
:10273C0003D123F070034A681343124A90420AD023
:10274C00B0F1804F07D0A2F59432904203D002F53D
:10275C008062904203D123F44073CA68134323F080
:10276C0080034A69134303608B68C3620B688362FE
:10277C00044B984202D00123436170470B690363F9
:10278C00F9E700BF002C014040B310B5044690F8A7
:10279C003D30F3B1022384F83D30214651F8040B4F
:1027AC00FFF7B8FF012384F8463084F83E3084F8F4
:1027BC003F3084F8403084F8413084F8423084F85B
:1027CC00433084F8443084F8453084F83D300020A0
:1027DC0010BD80F83C30FEF73BF8DBE7012070477A
:1027EC0040B310B5044690F83D30F3B1022384F8A1
:1027FC003D30214651F8040BFFF78CFF012384F880
:10280C00463084F83E3084F83F3084F8403084F809
:10281C00413084F8423084F8433084F8443084F8F2
:10282C00453084F83D30002010BD80F83C30FFF777
:10283C006FFFDBE70120704730B4036A026A22F0B5
:10284C00100202624468826922F4E6420D6842EA90
:10285C00052223F020038D6843EA05130E4DA84290
:10286C0009D00D4DA8420ED0446082614A68826343
:10287C00036230BC704723F08003CD6843EA051334
:10288C0023F04003EDE724F440644D6944EA8504E9
:10289C008D6944EA8504E7E7002C014038B590F8CF
:1028AC003C30012B66D004460D46012380F83C30A9
:1028BC000C2A5AD8DFE802F0075959591B595959B3
:1028CC003059595944000068FFF72EFE226893696D
:1028DC0043F0080393612268936923F00403936126
:1028EC002268936929690B43936100203EE00068DC
:1028FC00FFF7A2FF2268936943F400639361226897
:10290C00936923F48063936122689369296943EA8C
:10291C0001239361002029E00068FFF733FE226851
:10292C00D36943F00803D3612268D36923F004030D
:10293C00D3612268D36929690B43D361002015E068
:10294C000068FFF751FE2268D36943F40063D3613A
:10295C002268D36923F48063D3612268D36929691F
:10296C0043EA0123D361002000E00120002384F816
:10297C003C3038BD0220FCE710B4846824F47F4C52
:10298C0042EA03220A4342EA0C02826010BC7047FE
:10299C0090F83C30012B78D010B50446012380F818
:1029AC003C30022380F83D300268936823F47F4367
:1029BC0023F0770393600B68602B4CD029D8402B05
:1029CC0054D00CD9502B22D1CA6849680068FFF743
:1029DC002FFE50212068FFF750FE002005E0202B31
:1029EC000DD009D9302B0AD00120012384F83D30B9
:1029FC00002384F83C3010BD0BB1102B05D11946C7
:102A0C002068FFF73AFE0020EFE70120EDE70120F8
:102A1C00EBE7B3F5805F34D0B3F5005F0CD1CB6836
:102A2C004A6889680068FFF7A7FF2268936843F437
:102A3C00804393600020D8E7702B24D1CB684A6880
:102A4C0089680068FFF798FF2268936843F0770362
:102A5C0093600020C9E7CA6849680068FFF7FAFD6F
:102A6C0060212068FFF709FE0020BEE7CA684968AC
:102A7C000068FFF7DDFD40212068FFF7FEFD002018
:102A8C00B3E70020B1E70120AFE70220704701F067
:102A9C001F01012303FA01FC036A23EA0C030362FE
:102AAC00036A02FA01F10B430362704710B5044646
:102ABC00084651BB94F83E30DBB2013B18BF0123F2
:102ACC00002B5BD1002839D1022384F83E3001223F
:102ADC0001462068FFF7DBFF23682A4A93423DD06A
:102AEC002368284A93423ED0B3F1804F3BD0A2F5E5
:102AFC009432934237D002F58062934233D01A68F5
:102B0C0042F001021A60002039E0042908D008299B
:102B1C000DD094F84130DBB2013B18BF0123CFE755
:102B2C0094F83F30DBB2013B18BF0123C8E794F89F
:102B3C004030DBB2013B18BF0123C1E7042805D0AC
:102B4C00082807D0022384F84130C0E7022384F818
:102B5C003F30BCE7022384F84030B8E75A6C42F4AB
:102B6C0000425A64BCE79A6802F00702062A07D0B2
:102B7C001A6842F001021A60002000E0012010BD2A
:102B8C000020FCE7002C014090F83C30012B2CD0AD
:102B9C0010B4012380F83C30022380F83D300368E8
:102BAC005A689C6822F0700C0A6842EA0C025A605F
:102BBC0003680F4A93420AD0B3F1804F07D0A2F5B5
:102BCC009432934203D002F58062934204D124F0F4
:102BDC0080044A6814439C60012380F83D30002334
:102BEC0080F83C30184610BC70470220704700BF7C
:102BFC00002C0140026802F10C0353E8003F23F45F
:102C0C0090730C3242E800310029F3D1026802F1D2
:102C1C00140353E8003F23F00103143242E800315F
:102C2C000029F3D1036B012B05D0202380F842300F
:102C3C00002303637047026802F10C0353E8003F62
:102C4C0023F010030C3242E800310029F3D1ECE7F9
:102C5C0090F84130DBB2212B01D002207047836801
:102C6C00B3F5805F17D0036A5A1C02621A780368A6
:102C7C005A60C38C9BB2013B9BB2C3844BB90268B4
:102C8C00D36823F08003D3600268D36843F0400319
:102C9C00D360002070470369002BE4D1036A1B88C2
:102CAC000268C3F308035360036A02330362E0E76C
:102CBC0010B504460268136923F44053C1680B43F2
:102CCC00136183680269134342691A430168CB6834
:102CDC0023F4B05323F00C031343CB600268536905
:102CEC0023F4407381690B4353610268134B9A427E
:102CFC0020D0FFF7F9FB024602EB820202EB8202C4
:102D0C0063689B00B2FBF3F20D48A0FB023149094A
:102D1C00642303FB11231B013233A0FB03235B0948
:102D2C0003F0F00202EB011203F00F0321681344CD
:102D3C008B6010BDFFF7E8FB0246DDE70038014071
:102D4C001F85EB5160B310B5044690F8413013B3B6
:102D5C00242384F841302268D36823F40053D360D1
:102D6C002046FFF7A5FF2268136923F490431361F3
:102D7C002268536923F02A0353612268D36843F411
:102D8C000053D36000206064202384F8413084F821
:102D9C004230606310BD80F84030FDF737FED7E756
:102DAC0001207047704708B50168CA6822F04002DC
:102DBC00CA60202280F84120FFF7F4FF002008BDF4
:102DCC007047704708B5406A0023C385C384FFF77A
:102DDC00F8FF08BD704790F84230DBB2222B69D166
:102DEC008368B3F5805F4FD0826AB3F5805F04D0FF
:102DFC00002B56D10369002B53D103685B68137009
:102E0C00836A01338362C38D9BB2013B9BB2C38542
:102E1C00002B51D100B583B00268D36823F0200396
:102E2C00D3600268D36823F48073D360026853695B
:102E3C0023F001035361202380F8423000234363C5
:102E4C00036B012B33D100230363026802F10C03E3
:102E5C0053E8003F23F010030C3242E80031002904
:102E6C00F3D103681A6812F0100F06D000220192F9
:102E7C001A6801925B680193019B818DFFF7AAFF91
:102E8C00002003B05DF804FB0269002AACD1826A11
:102E9C0003685B68C3F308031380836A023383629D
:102EAC00B1E703685B6803F07F031370A8E7FFF7D3
:102EBC0087FFE5E7022070470020704730B583B0EC
:102ECC00044602681368D068516913F00F0505D1E8
:102EDC0013F0200F02D010F0200F19D12DB111F0EA
:102EEC00010119D110F4907F16D1216B01297DD0ED
:102EFC0013F0800F03D010F0800F40F0188113F006
:102F0C00400F03D010F0400F40F0158103B030BDDE
:102F1C002046FFF760FFF9E713F0010F06D010F41D
:102F2C00807F03D0626C42F00102626413F0040FE4
:102F3C0004D019B1626C42F00202626413F0020F09
:102F4C0004D019B1626C42F00402626413F0080FF1
:102F5C0007D010F0200F00D119B1626C42F00802BA
:102F6C006264626C002AD1D013F0200F02D010F0F2
:102F7C00200F29D123685B6903F04003626C12F0C7
:102F8C00080F00D163B32046FFF734FE23685B695A
:102F9C0013F0400F20D0226802F1140353E8003FD5
:102FAC0023F04003143242E800310029F3D1E36BE3
:102FBC0073B1634A5A63E06BFDF7ECFE0028A5D0B1
:102FCC00E06B436B9847A1E72046FFF704FFD1E77E
:102FDC002046FFF7F6FE99E72046FFF7F2FE95E74D
:102FEC002046FFF7EEFE002363648FE713F0100F0B
:102FFC003FF47EAF10F0100F3FF47AAF0023019333
:10300C001368019353680193019B536913F0400FAC
:10301C0051D0E26B13685B689BB2002B3FF476AF28
:10302C00A18D99427FF672AFE3859369202B37D03F
:10303C00226802F10C0353E8003F23F480730C3236
:10304C0042E800310029F3D1226802F1140353E85D
:10305C00003F23F00103143242E800310029F3D180
:10306C00226802F1140353E8003F23F040031432AA
:10307C0042E800310029F3D1202384F842300023A8
:10308C002363226802F10C0353E8003F23F0100382
:10309C000C3242E800310029F3D1E06BFDF756FE0B
:1030AC0002236363A18DE38D9BB2C91A89B22046BA
:1030BC00FFF790FE2AE7A18DE38D9BB2C91A89B266
:1030CC00E38D9BB2002B3FF421AF00293FF41EAFE0
:1030DC00226802F10C0353E8003F23F490730C3286
:1030EC0042E800300028F3D1226802F1140353E8BF
:1030FC00003F23F00103143242E800300028F3D1E2
:10310C00202384F8423000232363226802F10C034D
:10311C0053E8003F23F010030C3242E80030002843
:10312C00F3D1022363632046FFF754FEEEE62046FC
:10313C00FFF78EFDEAE62046FFF735FEE6E600BF18
:10314C00D12D0008014B1868704700BF10000020FB
:10315C0070B50D4E0D4D761BB61006D0002455F8EB
:10316C00043B01349847A642F9D1094E094D00F0B1
:10317C00F7FC761BB61006D0002455F8043B01343E
:10318C009847A642F9D170BDB43B0008B43B000887
:10319C00BC3B0008B43B0008024B0146186800F029
:1031AC0003B800BF100000202DE9F04F01F10B0512
:1031BC00162D064683B025D8102900F2B88000F0F1
:1031CC00F1FA102518224FF0020CB54F3A4453680F
:1031DC00A2F108018B4200F0B7805A68D96822F03E
:1031EC0003021A449C683046E1608C60516803F11C
:1031FC00080441F00101516000F0DAFA204603B0F6
:10320C00BDE8F08F35F0070500F19180A94200F27E
:10321C008E8000F0C7FAB5F5FC7FC0F094816B0A84
:10322C0000F08C80042B00F26A81AB0903F1390C9D
:10323C0003F138044FEACC00994F384443680838FE
:10324C00984206D10CE0002980F22681DB68984276
:10325C0006D05A6822F00302511B0F29F3DDA44655
:10326C003C69DFF840E274457AD0626822F00302D0
:10327C00531B0F2B00F37681002BC7E904EE80F271
:10328C006781B2F5007F80F019810121D3085209C2
:10329C000B4491407A6857F833000A4307EBC3019B
:1032AC000839A060E1607A6047F83340C4600121BE
:1032BC004FEAAC039940914259D8114206D12CF0F7
:1032CC00030C490011420CF1040CFAD007EBCC09A9
:1032DC0048466446D0F80C80404508D11CE1002BD0
:1032EC0080F22181D8F80C80404500F01581D8F887
:1032FC00042022F00302531B0F2BF0DD08EB050119
:10330C0045F00105C8F804503046D8E90264F46071
:10331C00A66043F00104C7E904114C60C1E902EE58
:10332C0048F8023000F044FA08F1080402E00C23DB
:10333C0000243360204603B0BDE8F08F4FF40070DA
:10334C004FF0400C3F2477E7D3689A4208BF0CF14A
:10335C00020C7FF442AF3C69DFF848E1744584D13C
:10336C0001217A684FEAAC0399409142A5D9BC6817
:10337C00636823F003094D4503D8A9EB05030F2B14
:10338C007ADCDFF824B1494BDBF800201B680132F2
:10339C002B4404EB090A00F02F8103F580530F3303
:1033AC0023F47F6828F00F084146304600F006FAF7
:1033BC00411C024600F0EF80824500F2EA803C4B53
:1033CC00196841440846196000F04981DBF8001087
:1033DC00019301311BBFA2EB0A0A5044CBF8002029
:1033EC00186012F0070B00F01181CBF108010A44B0
:1033FC00CBF5805190440831A1EB0801C1F30B0AC5
:10340C0051463046009200F0D9F9421CDDE9002308
:10341C0000F04B81801A00EB0A08196848F0010093
:10342C005144BC42BA601960506000F02481B9F17B
:10343C000F0F40F222814FF0050E6068A9F10C0CC1
:10344C002CF0070C00F0010040EA0C006060BCF1AD
:10345C000F0F04EB0C00C0E901EE00F22E811446B4
:10346C005068144B1A688A4238BF1960124B1A689C
:10347C008A4238BF196090E0621943F0010345F0AD
:10348C00010565603046BA600834536000F090F96D
:10349C00204603B0BDE8F08FD9681A44A2E600BFFD
:1034AC00400400204804002048080020880A00201E
:1034BC00580A0020800A0020840A0020B2F5206FF0
:1034CC004FEA52235FD3142B00F2B18003F15C015D
:1034DC00C9005B33781879580838884200F08F801F
:1034EC004B6823F00303934202D989688842F7D1D1
:1034FC00C8687A68C4E902108460CC60D7E6142BE3
:10350C0059D9542B00F29B802B0B03F16F0C03F158
:10351C006E044FEACC008FE60134A30700F10800DB
:10352C007FF4D8AE53E0444642445368D8F80C10AC
:10353C0043F00103536054F8083F3046D9608B6068
:10354C0000F036F9F6E64FEAD50C05F108023CE638
:10355C0022445368304643F00103536000F028F9CD
:10356C000834E7E6611945F00105656043F0010593
:10357C00C7E904113046C1E902EE4D60A35000F0DA
:10358C0017F90834D6E6930903F13901C900383329
:10359C00A0E7BC425ED0BC68606820F003084545DB
:1035AC00A8EB050302D80F2B3FF766AF304600F0AF
:1035BC00FFF80024BEE603F15C0C03F15B044FEA58
:1035CC00CC0039E659F808394B4540F095801CF091
:1035DC00030F0CF1FF3CF5D17B6823EA01037B6000
:1035EC00490099423FF6C3AE11B9C0E64900043414
:1035FC001942FBD0A44669E603F11008D4E6012277
:10360C009B109A407B681A437A6073E702EB0801BF
:10361C004942C1F30B0A51463046009200F0CEF8F5
:10362C00431CDDE900237FF4F5AEDA46F5E6542BB6
:10363C0026D8130B03F16F01C9006E334AE7B3F5BB
:10364C00AA7F26D8EB0B03F1780C03F177044FEA31
:10365C00CC00F1E5294B186840441860B6E6CAF373
:10366C000B0CBCF1000F7FF4B1AEBC68C84448F041
:10367C0001006060F5E61446F3E60123536095E71C
:10368C00B3F5AA7F24D8D30B03F17801C9007733A3
:10369C0020E740F25452934224D8AB0C03F17D0C3A
:1036AC0003F17C044FEACC00C6E5ABF1080BD8441F
:1036BC004FF0000AA8EB0208AFE604F1080130460F
:1036CC00009300F003F9BC68009B60681968C8E6B9
:1036DC0040F254518B420BD8930C03F17D01C9007D
:1036EC007C33F7E64FF47E704FF07F0C7E24A3E51D
:1036FC004FF47E717E23EDE67B6871E7580A00205B
:10370C00830730B548D0541E002A3FD00346CAB2B6
:10371C0001E0013C3AD303F8012B9D07F9D1032CAE
:10372C002DD9CDB245EA05250F2C45EA054536D9EC
:10373C00A4F1100222F00F0C03F1200EE6444FEA24
:10374C00121C03F1100242E9045542E902551032F1
:10375C007245F8D10CF1010214F00C0F03EB0212BC
:10376C0004F00F0C13D0ACF1040323F00303043367
:10377C00134442F8045B9342FBD10CF003042CB1CC
:10378C00CAB21C4403F8012B9C42FBD130BD6446E9
:10379C001346002CF4D1F9E703461446BFE71A464A
:1037AC00A446E0E7014800F091B900BF900A002060
:1037BC00014800F08DB900BF900A0020002238B5F6
:1037CC00064D044608462A60FCF7E6FF431C00D071
:1037DC0038BD2B68002BFBD0236038BD940A002029
:1037EC00024B13B1024800F005B87047000000000E
:1037FC000D380008002301461A46184600F06AB935
:10380C0038B5084B084D5B1B9C1007D0043B1D447E
:10381C00013C55F804399847002CF9D1BDE83840E3
:10382C0000F0A4B9C03B0008BC3B0008F8B50C463E
:10383C00234F0646FFF7B6FFBB685D68C4F57E6391
:10384C0025F003050F332B4423F47F6323F00F0380
:10385C00A3F58054B4F5805F07DB00213046FFF7F9
:10386C00ADFFBB682B44984204D03046FFF7A0FF55
:10387C000020F8BD30466142FFF7A0FF01300DD0AB
:10388C00104ABB682D1B45F001055D60136830467E
:10389C001B1B1360FFF78CFF0120F8BD0021304685
:1038AC00FFF78CFFBA68831A0F2BDEDD43F00103A0
:1038BC005360054B03491B68C01A0860D5E700BF6D
:1038CC0040040020580A00204808002000295ED03F
:1038DC00F8B50C460646FFF765FF54F8042C784FF4
:1038EC00A4F1080522F001016818D7F808C0436854
:1038FC00844523F0030300F08780D207436034D45F
:10390C0054F8082C07F10804AD1A1144AA68A24215
:10391C0068D000EB030CDCF804E0D5F80CC01EF00A
:10392C00010FC2F80CC0CCF8082000F0918041F0D7
:10393C0001036B600160B1F5007F31D24A09CB08FD
:10394C00012191407A6801331143796007EBC3027E
:10395C0057F83310083AC5E9021247F83350CD60D6
:10396C003046BDE8F840FFF723BFC2185268D207B3
:10397C000ED4194407F108048368A34270D0C268BE
:10398C00DA60936041F001036B606950D3E77047D4
:10399C0041F00103B1F5007F44F8043C0160CDD344
:1039AC00B1F5206F4FEA512347D28B0903F139004F
:1039BC0003F13802C300F818FB580838984258D065
:1039CC005A6822F003028A4202D99B689842F7D1C6
:1039DC00D868C5E9023085603046DD60BDE8F84046
:1039EC00FFF7E6BEC2185268D20763D40B44D0E985
:1039FC000212CA60916043F001026A603046EB50DB
:103A0C00BDE8F840FFF7D4BE0B44D10707D454F8F7
:103A1C00082CAD1A1344D5E90212CA60916043F028
:103A2C0001026A60274ABD6012689A4298D8264BF8
:103A3C0030461968FFF7FAFE92E7142B0AD9542B7B
:103A4C001FD80B0B03F16F0003F16E02C300B2E73A
:103A5C00194491E703F15C0003F15B02C300AAE790
:103A6C0041F00103C7E90455C5E902446B60695094
:103A7C0076E70121921001FA02F279680A437A6022
:103A8C00A7E7B3F5AA7F06D8CB0B03F1780003F1B7
:103A9C007702C3008FE740F25452934206D88B0C46
:103AAC0003F17D0003F17C02C30084E74FF47E73C5
:103ABC007E2280E741F001036B60016050E700BF9C
:103ACC00400400204C080020880A0020704700BFEA
:103ADC00704700BF2DE9F047DFF87CA00646DAF806
:103AEC00000098460F469146FFF7F0FF1B4B1B68F2
:103AFC00D3F8484124B365681F2D26DC5EB96B1CD6
:103B0C000235DAF80000636044F82570FFF7E0FF37
:103B1C000020BDE8F087012304EB8501C1F88890F3
:103B2C00D4F88821AB401A43022EC4F88821C1F87E
:103B3C000881E4D1D4F88C211343C4F88C31DEE72E
:103B4C0003F5A674C3F84841D5E7DAF80000FFF78F
:103B5C00BFFF4FF0FF30DCE750080020B03B0008FF
:103B6C00F8B500BFF8BC08BC9E467047F8B500BF5E
:083B7C00F8BC08BC9E4670472E
:103B84000000000000000000010203040607080909
:103B940000000000010203040203040506070809EB
:103BA4000A0B0C0D0E0F101001020000180000206B
:083BB400ED37000831010008A3
:043BBC000D010008EF
:103BC000680000000024F400010000001000000064
:103BD0001800002000000000000000000403002086
:103BE0006C030020D403002000000000000000004F
:103BF00000000000000000000000000000000000C5
:103C000000000000000000000000000000000000B4
:103C100000000000000000000000000000000000A4
:103C20000000000000000000000000000000000094
:103C30000000000000000000000000000000000084
:103C40000000000000000000000000000000000074
:103C50000000000000000000000000000000000064
:103C60000000000000000000000000000000000054
:103C70000000000000000000000000000000000044
:103C800001000000000000000E33CDAB34126DE6E1
:103C9000ECDE05000B00000000000000000000004A
:103CA0000000000000000000000000000000000014
:103CB0000000000000000000000000000000000004
:103CC00000000000000000000000000000000000F4
:103CD00000000000000000000000000000000000E4
:1040000000000000000000004004002040040020E8
:1040100048040020480400205004002050040020E0
:104020005804002058040020600400206004002090
:104030006804002068040020700400207004002040
:1040400078040020780400208004002080040020F0
:1040500088040020880400209004002090040020A0
:104060009804002098040020A0040020A004002050
:10407000A8040020A8040020B0040020B004002000
:10408000B8040020B8040020C0040020C0040020B0
:10409000C8040020C8040020D0040020D004002060
:1040A000D8040020D8040020E0040020E004002010
:1040B000E8040020E8040020F0040020F0040020C0
:1040C000F8040020F804002000050020000500206E
:1040D000080500200805002010050020100500201C
:1040E00018050020180500202005002020050020CC
:1040F000280500202805002030050020300500207C
:10410000380500203805002040050020400500202B
:1041100048050020480500205005002050050020DB
:10412000580500205805002060050020600500208B
:10413000680500206805002070050020700500203B
:1041400078050020780500208005002080050020EB
:10415000880500208805002090050020900500209B
:104160009805002098050020A0050020A00500204B
:10417000A8050020A8050020B0050020B0050020FB
:10418000B8050020B8050020C0050020C0050020AB
:10419000C8050020C8050020D0050020D00500205B
:1041A000D8050020D8050020E0050020E00500200B
:1041B000E8050020E8050020F0050020F0050020BB
:1041C000F8050020F8050020000600200006002069
:1041D0000806002008060020100600201006002017
:1041E00018060020180600202006002020060020C7
:1041F0002806002028060020300600203006002077
:104200003806002038060020400600204006002026
:1042100048060020480600205006002050060020D6
:104220005806002058060020600600206006002086
:104230006806002068060020700600207006002036
:1042400078060020780600208006002080060020E6
:104250008806002088060020900600209006002096
:104260009806002098060020A0060020A006002046
:10427000A8060020A8060020B0060020B0060020F6
:10428000B8060020B8060020C0060020C0060020A6
:10429000C8060020C8060020D0060020D006002056
:1042A000D8060020D8060020E0060020E006002006
:1042B000E8060020E8060020F0060020F0060020B6
:1042C000F8060020F8060020000700200007002064
:1042D0000807002008070020100700201007002012
:1042E00018070020180700202007002020070020C2
:1042F0002807002028070020300700203007002072
:104300003807002038070020400700204007002021
:1043100048070020480700205007002050070020D1
:104320005807002058070020600700206007002081
:104330006807002068070020700700207007002031
:1043400078070020780700208007002080070020E1
:104350008807002088070020900700209007002091
:104360009807002098070020A0070020A007002041
:10437000A8070020A8070020B0070020B0070020F1
:10438000B8070020B8070020C0070020C0070020A1
:10439000C8070020C8070020D0070020D007002051
:1043A000D8070020D8070020E0070020E007002001
:1043B000E8070020E8070020F0070020F0070020B1
:1043C000F8070020F807002000080020000800205F
:1043D000080800200808002010080020100800200D
:1043E00018080020180800202008002020080020BD
:1043F000280800202808002030080020300800206D
:104400003808002038080020FFFFFFFF00000200EE
:044410008C0A0020F2
:0400000508000B0DD7
:00000001FF
